{
  "_format": "hh-sol-artifact-1",
  "contractName": "NFT",
  "sourceName": "contracts/NFT.sol",
  "abi": [
    {
      "inputs": [
        {
          "internalType": "address",
          "name": "marketPlaceAddress",
          "type": "address"
        }
      ],
      "stateMutability": "nonpayable",
      "type": "constructor"
    },
    {
      "inputs": [
        {
          "internalType": "address",
          "name": "sender",
          "type": "address"
        },
        {
          "internalType": "uint256",
          "name": "tokenId",
          "type": "uint256"
        },
        {
          "internalType": "address",
          "name": "owner",
          "type": "address"
        }
      ],
      "name": "ERC721IncorrectOwner",
      "type": "error"
    },
    {
      "inputs": [
        {
          "internalType": "address",
          "name": "operator",
          "type": "address"
        },
        {
          "internalType": "uint256",
          "name": "tokenId",
          "type": "uint256"
        }
      ],
      "name": "ERC721InsufficientApproval",
      "type": "error"
    },
    {
      "inputs": [
        {
          "internalType": "address",
          "name": "approver",
          "type": "address"
        }
      ],
      "name": "ERC721InvalidApprover",
      "type": "error"
    },
    {
      "inputs": [
        {
          "internalType": "address",
          "name": "operator",
          "type": "address"
        }
      ],
      "name": "ERC721InvalidOperator",
      "type": "error"
    },
    {
      "inputs": [
        {
          "internalType": "address",
          "name": "owner",
          "type": "address"
        }
      ],
      "name": "ERC721InvalidOwner",
      "type": "error"
    },
    {
      "inputs": [
        {
          "internalType": "address",
          "name": "receiver",
          "type": "address"
        }
      ],
      "name": "ERC721InvalidReceiver",
      "type": "error"
    },
    {
      "inputs": [
        {
          "internalType": "address",
          "name": "sender",
          "type": "address"
        }
      ],
      "name": "ERC721InvalidSender",
      "type": "error"
    },
    {
      "inputs": [
        {
          "internalType": "uint256",
          "name": "tokenId",
          "type": "uint256"
        }
      ],
      "name": "ERC721NonexistentToken",
      "type": "error"
    },
    {
      "anonymous": false,
      "inputs": [
        {
          "indexed": true,
          "internalType": "address",
          "name": "owner",
          "type": "address"
        },
        {
          "indexed": true,
          "internalType": "address",
          "name": "approved",
          "type": "address"
        },
        {
          "indexed": true,
          "internalType": "uint256",
          "name": "tokenId",
          "type": "uint256"
        }
      ],
      "name": "Approval",
      "type": "event"
    },
    {
      "anonymous": false,
      "inputs": [
        {
          "indexed": true,
          "internalType": "address",
          "name": "owner",
          "type": "address"
        },
        {
          "indexed": true,
          "internalType": "address",
          "name": "operator",
          "type": "address"
        },
        {
          "indexed": false,
          "internalType": "bool",
          "name": "approved",
          "type": "bool"
        }
      ],
      "name": "ApprovalForAll",
      "type": "event"
    },
    {
      "anonymous": false,
      "inputs": [
        {
          "indexed": false,
          "internalType": "uint256",
          "name": "_fromTokenId",
          "type": "uint256"
        },
        {
          "indexed": false,
          "internalType": "uint256",
          "name": "_toTokenId",
          "type": "uint256"
        }
      ],
      "name": "BatchMetadataUpdate",
      "type": "event"
    },
    {
      "anonymous": false,
      "inputs": [
        {
          "indexed": false,
          "internalType": "uint256",
          "name": "_tokenId",
          "type": "uint256"
        }
      ],
      "name": "MetadataUpdate",
      "type": "event"
    },
    {
      "anonymous": false,
      "inputs": [
        {
          "indexed": true,
          "internalType": "address",
          "name": "from",
          "type": "address"
        },
        {
          "indexed": true,
          "internalType": "address",
          "name": "to",
          "type": "address"
        },
        {
          "indexed": true,
          "internalType": "uint256",
          "name": "tokenId",
          "type": "uint256"
        }
      ],
      "name": "Transfer",
      "type": "event"
    },
    {
      "inputs": [],
      "name": "_tokenId",
      "outputs": [
        {
          "internalType": "uint256",
          "name": "_value",
          "type": "uint256"
        }
      ],
      "stateMutability": "view",
      "type": "function"
    },
    {
      "inputs": [
        {
          "internalType": "address",
          "name": "to",
          "type": "address"
        },
        {
          "internalType": "uint256",
          "name": "tokenId",
          "type": "uint256"
        }
      ],
      "name": "approve",
      "outputs": [],
      "stateMutability": "nonpayable",
      "type": "function"
    },
    {
      "inputs": [
        {
          "internalType": "address",
          "name": "owner",
          "type": "address"
        }
      ],
      "name": "balanceOf",
      "outputs": [
        {
          "internalType": "uint256",
          "name": "",
          "type": "uint256"
        }
      ],
      "stateMutability": "view",
      "type": "function"
    },
    {
      "inputs": [
        {
          "internalType": "string",
          "name": "tokenURI",
          "type": "string"
        }
      ],
      "name": "createToken",
      "outputs": [
        {
          "internalType": "uint256",
          "name": "",
          "type": "uint256"
        }
      ],
      "stateMutability": "nonpayable",
      "type": "function"
    },
    {
      "inputs": [
        {
          "internalType": "uint256",
          "name": "tokenId",
          "type": "uint256"
        }
      ],
      "name": "getApproved",
      "outputs": [
        {
          "internalType": "address",
          "name": "",
          "type": "address"
        }
      ],
      "stateMutability": "view",
      "type": "function"
    },
    {
      "inputs": [
        {
          "internalType": "address",
          "name": "owner",
          "type": "address"
        },
        {
          "internalType": "address",
          "name": "operator",
          "type": "address"
        }
      ],
      "name": "isApprovedForAll",
      "outputs": [
        {
          "internalType": "bool",
          "name": "",
          "type": "bool"
        }
      ],
      "stateMutability": "view",
      "type": "function"
    },
    {
      "inputs": [],
      "name": "name",
      "outputs": [
        {
          "internalType": "string",
          "name": "",
          "type": "string"
        }
      ],
      "stateMutability": "view",
      "type": "function"
    },
    {
      "inputs": [
        {
          "internalType": "uint256",
          "name": "tokenId",
          "type": "uint256"
        }
      ],
      "name": "ownerOf",
      "outputs": [
        {
          "internalType": "address",
          "name": "",
          "type": "address"
        }
      ],
      "stateMutability": "view",
      "type": "function"
    },
    {
      "inputs": [
        {
          "internalType": "address",
          "name": "from",
          "type": "address"
        },
        {
          "internalType": "address",
          "name": "to",
          "type": "address"
        },
        {
          "internalType": "uint256",
          "name": "tokenId",
          "type": "uint256"
        }
      ],
      "name": "safeTransferFrom",
      "outputs": [],
      "stateMutability": "nonpayable",
      "type": "function"
    },
    {
      "inputs": [
        {
          "internalType": "address",
          "name": "from",
          "type": "address"
        },
        {
          "internalType": "address",
          "name": "to",
          "type": "address"
        },
        {
          "internalType": "uint256",
          "name": "tokenId",
          "type": "uint256"
        },
        {
          "internalType": "bytes",
          "name": "data",
          "type": "bytes"
        }
      ],
      "name": "safeTransferFrom",
      "outputs": [],
      "stateMutability": "nonpayable",
      "type": "function"
    },
    {
      "inputs": [
        {
          "internalType": "address",
          "name": "operator",
          "type": "address"
        },
        {
          "internalType": "bool",
          "name": "approved",
          "type": "bool"
        }
      ],
      "name": "setApprovalForAll",
      "outputs": [],
      "stateMutability": "nonpayable",
      "type": "function"
    },
    {
      "inputs": [
        {
          "internalType": "bytes4",
          "name": "interfaceId",
          "type": "bytes4"
        }
      ],
      "name": "supportsInterface",
      "outputs": [
        {
          "internalType": "bool",
          "name": "",
          "type": "bool"
        }
      ],
      "stateMutability": "view",
      "type": "function"
    },
    {
      "inputs": [],
      "name": "symbol",
      "outputs": [
        {
          "internalType": "string",
          "name": "",
          "type": "string"
        }
      ],
      "stateMutability": "view",
      "type": "function"
    },
    {
      "inputs": [
        {
          "internalType": "uint256",
          "name": "tokenId",
          "type": "uint256"
        }
      ],
      "name": "tokenURI",
      "outputs": [
        {
          "internalType": "string",
          "name": "",
          "type": "string"
        }
      ],
      "stateMutability": "view",
      "type": "function"
    },
    {
      "inputs": [
        {
          "internalType": "address",
          "name": "from",
          "type": "address"
        },
        {
          "internalType": "address",
          "name": "to",
          "type": "address"
        },
        {
          "internalType": "uint256",
          "name": "tokenId",
          "type": "uint256"
        }
      ],
      "name": "transferFrom",
      "outputs": [],
      "stateMutability": "nonpayable",
      "type": "function"
    }
  ],
  "bytecode": "0x60806040523480156200001157600080fd5b50604051620028d3380380620028d383398181016040528101906200003791906200017b565b6040518060400160405280600481526020017f4c4f4b49000000000000000000000000000000000000000000000000000000008152506040518060400160405280600381526020017f4c4b5400000000000000000000000000000000000000000000000000000000008152508160009081620000b4919062000427565b508060019081620000c6919062000427565b50505080600860006101000a81548173ffffffffffffffffffffffffffffffffffffffff021916908373ffffffffffffffffffffffffffffffffffffffff160217905550506200050e565b600080fd5b600073ffffffffffffffffffffffffffffffffffffffff82169050919050565b6000620001438262000116565b9050919050565b620001558162000136565b81146200016157600080fd5b50565b60008151905062000175816200014a565b92915050565b60006020828403121562000194576200019362000111565b5b6000620001a48482850162000164565b91505092915050565b600081519050919050565b7f4e487b7100000000000000000000000000000000000000000000000000000000600052604160045260246000fd5b7f4e487b7100000000000000000000000000000000000000000000000000000000600052602260045260246000fd5b600060028204905060018216806200022f57607f821691505b602082108103620002455762000244620001e7565b5b50919050565b60008190508160005260206000209050919050565b60006020601f8301049050919050565b600082821b905092915050565b600060088302620002af7fffffffffffffffffffffffffffffffffffffffffffffffffffffffffffffffff8262000270565b620002bb868362000270565b95508019841693508086168417925050509392505050565b6000819050919050565b6000819050919050565b60006200030862000302620002fc84620002d3565b620002dd565b620002d3565b9050919050565b6000819050919050565b6200032483620002e7565b6200033c62000333826200030f565b8484546200027d565b825550505050565b600090565b6200035362000344565b6200036081848462000319565b505050565b5b8181101562000388576200037c60008262000349565b60018101905062000366565b5050565b601f821115620003d757620003a1816200024b565b620003ac8462000260565b81016020851015620003bc578190505b620003d4620003cb8562000260565b83018262000365565b50505b505050565b600082821c905092915050565b6000620003fc60001984600802620003dc565b1980831691505092915050565b6000620004178383620003e9565b9150826002028217905092915050565b6200043282620001ad565b67ffffffffffffffff8111156200044e576200044d620001b8565b5b6200045a825462000216565b620004678282856200038c565b600060209050601f8311600181146200049f57600084156200048a578287015190505b62000496858262000409565b86555062000506565b601f198416620004af866200024b565b60005b82811015620004d957848901518255600182019150602085019450602081019050620004b2565b86831015620004f95784890151620004f5601f891682620003e9565b8355505b6001600288020188555050505b505050505050565b6123b5806200051e6000396000f3fe608060405234801561001057600080fd5b50600436106100f55760003560e01c806345576f9411610097578063a22cb46511610066578063a22cb46514610298578063b88d4fde146102b4578063c87b56dd146102d0578063e985e9c514610300576100f5565b806345576f94146101ea5780636352211e1461021a57806370a082311461024a57806395d89b411461027a576100f5565b8063095ea7b3116100d3578063095ea7b31461017857806323b872dd1461019457806324822514146101b057806342842e0e146101ce576100f5565b806301ffc9a7146100fa57806306fdde031461012a578063081812fc14610148575b600080fd5b610114600480360381019061010f9190611897565b610330565b60405161012191906118df565b60405180910390f35b610132610391565b60405161013f919061198a565b60405180910390f35b610162600480360381019061015d91906119e2565b610423565b60405161016f9190611a50565b60405180910390f35b610192600480360381019061018d9190611a97565b61043f565b005b6101ae60048036038101906101a99190611ad7565b610455565b005b6101b8610557565b6040516101c59190611b39565b60405180910390f35b6101e860048036038101906101e39190611ad7565b610563565b005b61020460048036038101906101ff9190611c89565b610583565b6040516102119190611b39565b60405180910390f35b610234600480360381019061022f91906119e2565b6105e7565b6040516102419190611a50565b60405180910390f35b610264600480360381019061025f9190611cd2565b6105f9565b6040516102719190611b39565b60405180910390f35b6102826106b3565b60405161028f919061198a565b60405180910390f35b6102b260048036038101906102ad9190611d2b565b610745565b005b6102ce60048036038101906102c99190611e0c565b61075b565b005b6102ea60048036038101906102e591906119e2565b610778565b6040516102f7919061198a565b60405180910390f35b61031a60048036038101906103159190611e8f565b61088b565b60405161032791906118df565b60405180910390f35b6000634906490660e01b7bffffffffffffffffffffffffffffffffffffffffffffffffffffffff1916827bffffffffffffffffffffffffffffffffffffffffffffffffffffffff1916148061038a57506103898261091f565b5b9050919050565b6060600080546103a090611efe565b80601f01602080910402602001604051908101604052809291908181526020018280546103cc90611efe565b80156104195780601f106103ee57610100808354040283529160200191610419565b820191906000526020600020905b8154815290600101906020018083116103fc57829003601f168201915b5050505050905090565b600061042e82610a01565b5061043882610a89565b9050919050565b610451828261044c610ac6565b610ace565b5050565b600073ffffffffffffffffffffffffffffffffffffffff168273ffffffffffffffffffffffffffffffffffffffff16036104c75760006040517f64a0ae920000000000000000000000000000000000000000000000000000000081526004016104be9190611a50565b60405180910390fd5b60006104db83836104d6610ac6565b610ae0565b90508373ffffffffffffffffffffffffffffffffffffffff168173ffffffffffffffffffffffffffffffffffffffff1614610551578382826040517f64283d7b00000000000000000000000000000000000000000000000000000000815260040161054893929190611f2f565b60405180910390fd5b50505050565b60078060000154905081565b61057e8383836040518060200160405280600081525061075b565b505050565b600061058f6007610cfa565b600061059b6007610d10565b90506105a73382610d1e565b6105b18184610e17565b6105de600860009054906101000a900473ffffffffffffffffffffffffffffffffffffffff166001610745565b80915050919050565b60006105f282610a01565b9050919050565b60008073ffffffffffffffffffffffffffffffffffffffff168273ffffffffffffffffffffffffffffffffffffffff160361066c5760006040517f89c62b640000000000000000000000000000000000000000000000000000000081526004016106639190611a50565b60405180910390fd5b600360008373ffffffffffffffffffffffffffffffffffffffff1673ffffffffffffffffffffffffffffffffffffffff168152602001908152602001600020549050919050565b6060600180546106c290611efe565b80601f01602080910402602001604051908101604052809291908181526020018280546106ee90611efe565b801561073b5780601f106107105761010080835404028352916020019161073b565b820191906000526020600020905b81548152906001019060200180831161071e57829003601f168201915b5050505050905090565b610757610750610ac6565b8383610e73565b5050565b610766848484610455565b61077284848484610fe2565b50505050565b606061078382610a01565b5060006006600084815260200190815260200160002080546107a490611efe565b80601f01602080910402602001604051908101604052809291908181526020018280546107d090611efe565b801561081d5780601f106107f25761010080835404028352916020019161081d565b820191906000526020600020905b81548152906001019060200180831161080057829003601f168201915b50505050509050600061082e611199565b90506000815103610843578192505050610886565b600082511115610878578082604051602001610860929190611fa2565b60405160208183030381529060405292505050610886565b610881846111b0565b925050505b919050565b6000600560008473ffffffffffffffffffffffffffffffffffffffff1673ffffffffffffffffffffffffffffffffffffffff16815260200190815260200160002060008373ffffffffffffffffffffffffffffffffffffffff1673ffffffffffffffffffffffffffffffffffffffff16815260200190815260200160002060009054906101000a900460ff16905092915050565b60007f80ac58cd000000000000000000000000000000000000000000000000000000007bffffffffffffffffffffffffffffffffffffffffffffffffffffffff1916827bffffffffffffffffffffffffffffffffffffffffffffffffffffffff191614806109ea57507f5b5e139f000000000000000000000000000000000000000000000000000000007bffffffffffffffffffffffffffffffffffffffffffffffffffffffff1916827bffffffffffffffffffffffffffffffffffffffffffffffffffffffff1916145b806109fa57506109f982611219565b5b9050919050565b600080610a0d83611283565b9050600073ffffffffffffffffffffffffffffffffffffffff168173ffffffffffffffffffffffffffffffffffffffff1603610a8057826040517f7e273289000000000000000000000000000000000000000000000000000000008152600401610a779190611b39565b60405180910390fd5b80915050919050565b60006004600083815260200190815260200160002060009054906101000a900473ffffffffffffffffffffffffffffffffffffffff169050919050565b600033905090565b610adb83838360016112c0565b505050565b600080610aec84611283565b9050600073ffffffffffffffffffffffffffffffffffffffff168373ffffffffffffffffffffffffffffffffffffffff1614610b2e57610b2d818486611485565b5b600073ffffffffffffffffffffffffffffffffffffffff168173ffffffffffffffffffffffffffffffffffffffff1614610bbf57610b706000856000806112c0565b6001600360008373ffffffffffffffffffffffffffffffffffffffff1673ffffffffffffffffffffffffffffffffffffffff168152602001908152602001600020600082825403925050819055505b600073ffffffffffffffffffffffffffffffffffffffff168573ffffffffffffffffffffffffffffffffffffffff1614610c42576001600360008773ffffffffffffffffffffffffffffffffffffffff1673ffffffffffffffffffffffffffffffffffffffff168152602001908152602001600020600082825401925050819055505b846002600086815260200190815260200160002060006101000a81548173ffffffffffffffffffffffffffffffffffffffff021916908373ffffffffffffffffffffffffffffffffffffffff160217905550838573ffffffffffffffffffffffffffffffffffffffff168273ffffffffffffffffffffffffffffffffffffffff167fddf252ad1be2c89b69c2b068fc378daa952ba7f163c4a11628f55a4df523b3ef60405160405180910390a4809150509392505050565b6001816000016000828254019250508190555050565b600081600001549050919050565b600073ffffffffffffffffffffffffffffffffffffffff168273ffffffffffffffffffffffffffffffffffffffff1603610d905760006040517f64a0ae92000000000000000000000000000000000000000000000000000000008152600401610d879190611a50565b60405180910390fd5b6000610d9e83836000610ae0565b9050600073ffffffffffffffffffffffffffffffffffffffff168173ffffffffffffffffffffffffffffffffffffffff1614610e125760006040517f73c6ac6e000000000000000000000000000000000000000000000000000000008152600401610e099190611a50565b60405180910390fd5b505050565b80600660008481526020019081526020016000209081610e379190612172565b507ff8e1a15aba9398e019f0b49df1a4fde98ee17ae345cb5f6b5e2c27f5033e8ce782604051610e679190611b39565b60405180910390a15050565b600073ffffffffffffffffffffffffffffffffffffffff168273ffffffffffffffffffffffffffffffffffffffff1603610ee457816040517f5b08ba18000000000000000000000000000000000000000000000000000000008152600401610edb9190611a50565b60405180910390fd5b80600560008573ffffffffffffffffffffffffffffffffffffffff1673ffffffffffffffffffffffffffffffffffffffff16815260200190815260200160002060008473ffffffffffffffffffffffffffffffffffffffff1673ffffffffffffffffffffffffffffffffffffffff16815260200190815260200160002060006101000a81548160ff0219169083151502179055508173ffffffffffffffffffffffffffffffffffffffff168373ffffffffffffffffffffffffffffffffffffffff167f17307eab39ab6107e8899845ad3d59bd9653f200f220920489ca2b5937696c3183604051610fd591906118df565b60405180910390a3505050565b60008373ffffffffffffffffffffffffffffffffffffffff163b1115611193578273ffffffffffffffffffffffffffffffffffffffff1663150b7a02611026610ac6565b8685856040518563ffffffff1660e01b81526004016110489493929190612299565b6020604051808303816000875af192505050801561108457506040513d601f19601f8201168201806040525081019061108191906122fa565b60015b611108573d80600081146110b4576040519150601f19603f3d011682016040523d82523d6000602084013e6110b9565b606091505b50600081510361110057836040517f64a0ae920000000000000000000000000000000000000000000000000000000081526004016110f79190611a50565b60405180910390fd5b805181602001fd5b63150b7a0260e01b7bffffffffffffffffffffffffffffffffffffffffffffffffffffffff1916817bffffffffffffffffffffffffffffffffffffffffffffffffffffffff19161461119157836040517f64a0ae920000000000000000000000000000000000000000000000000000000081526004016111889190611a50565b60405180910390fd5b505b50505050565b606060405180602001604052806000815250905090565b60606111bb82610a01565b5060006111c6611199565b905060008151116111e65760405180602001604052806000815250611211565b806111f084611549565b604051602001611201929190611fa2565b6040516020818303038152906040525b915050919050565b60007f01ffc9a7000000000000000000000000000000000000000000000000000000007bffffffffffffffffffffffffffffffffffffffffffffffffffffffff1916827bffffffffffffffffffffffffffffffffffffffffffffffffffffffff1916149050919050565b60006002600083815260200190815260200160002060009054906101000a900473ffffffffffffffffffffffffffffffffffffffff169050919050565b80806112f95750600073ffffffffffffffffffffffffffffffffffffffff168273ffffffffffffffffffffffffffffffffffffffff1614155b1561142d57600061130984610a01565b9050600073ffffffffffffffffffffffffffffffffffffffff168373ffffffffffffffffffffffffffffffffffffffff161415801561137457508273ffffffffffffffffffffffffffffffffffffffff168173ffffffffffffffffffffffffffffffffffffffff1614155b80156113875750611385818461088b565b155b156113c957826040517fa9fbf51f0000000000000000000000000000000000000000000000000000000081526004016113c09190611a50565b60405180910390fd5b811561142b57838573ffffffffffffffffffffffffffffffffffffffff168273ffffffffffffffffffffffffffffffffffffffff167f8c5be1e5ebec7d5bd14f71427d1e84f3dd0314c0f7b2291e5b200ac8c7c3b92560405160405180910390a45b505b836004600085815260200190815260200160002060006101000a81548173ffffffffffffffffffffffffffffffffffffffff021916908373ffffffffffffffffffffffffffffffffffffffff16021790555050505050565b611490838383611617565b61154457600073ffffffffffffffffffffffffffffffffffffffff168373ffffffffffffffffffffffffffffffffffffffff160361150557806040517f7e2732890000000000000000000000000000000000000000000000000000000081526004016114fc9190611b39565b60405180910390fd5b81816040517f177e802f00000000000000000000000000000000000000000000000000000000815260040161153b929190612327565b60405180910390fd5b505050565b606060006001611558846116d8565b01905060008167ffffffffffffffff81111561157757611576611b5e565b5b6040519080825280601f01601f1916602001820160405280156115a95781602001600182028036833780820191505090505b509050600082602001820190505b60011561160c578080600190039150507f3031323334353637383961626364656600000000000000000000000000000000600a86061a8153600a8581611600576115ff612350565b5b049450600085036115b7575b819350505050919050565b60008073ffffffffffffffffffffffffffffffffffffffff168373ffffffffffffffffffffffffffffffffffffffff16141580156116cf57508273ffffffffffffffffffffffffffffffffffffffff168473ffffffffffffffffffffffffffffffffffffffff161480611690575061168f848461088b565b5b806116ce57508273ffffffffffffffffffffffffffffffffffffffff166116b683610a89565b73ffffffffffffffffffffffffffffffffffffffff16145b5b90509392505050565b600080600090507a184f03e93ff9f4daa797ed6e38ed64bf6a1f0100000000000000008310611736577a184f03e93ff9f4daa797ed6e38ed64bf6a1f010000000000000000838161172c5761172b612350565b5b0492506040810190505b6d04ee2d6d415b85acef81000000008310611773576d04ee2d6d415b85acef8100000000838161176957611768612350565b5b0492506020810190505b662386f26fc1000083106117a257662386f26fc10000838161179857611797612350565b5b0492506010810190505b6305f5e10083106117cb576305f5e10083816117c1576117c0612350565b5b0492506008810190505b61271083106117f05761271083816117e6576117e5612350565b5b0492506004810190505b60648310611813576064838161180957611808612350565b5b0492506002810190505b600a8310611822576001810190505b80915050919050565b6000604051905090565b600080fd5b600080fd5b60007fffffffff0000000000000000000000000000000000000000000000000000000082169050919050565b6118748161183f565b811461187f57600080fd5b50565b6000813590506118918161186b565b92915050565b6000602082840312156118ad576118ac611835565b5b60006118bb84828501611882565b91505092915050565b60008115159050919050565b6118d9816118c4565b82525050565b60006020820190506118f460008301846118d0565b92915050565b600081519050919050565b600082825260208201905092915050565b60005b83811015611934578082015181840152602081019050611919565b60008484015250505050565b6000601f19601f8301169050919050565b600061195c826118fa565b6119668185611905565b9350611976818560208601611916565b61197f81611940565b840191505092915050565b600060208201905081810360008301526119a48184611951565b905092915050565b6000819050919050565b6119bf816119ac565b81146119ca57600080fd5b50565b6000813590506119dc816119b6565b92915050565b6000602082840312156119f8576119f7611835565b5b6000611a06848285016119cd565b91505092915050565b600073ffffffffffffffffffffffffffffffffffffffff82169050919050565b6000611a3a82611a0f565b9050919050565b611a4a81611a2f565b82525050565b6000602082019050611a656000830184611a41565b92915050565b611a7481611a2f565b8114611a7f57600080fd5b50565b600081359050611a9181611a6b565b92915050565b60008060408385031215611aae57611aad611835565b5b6000611abc85828601611a82565b9250506020611acd858286016119cd565b9150509250929050565b600080600060608486031215611af057611aef611835565b5b6000611afe86828701611a82565b9350506020611b0f86828701611a82565b9250506040611b20868287016119cd565b9150509250925092565b611b33816119ac565b82525050565b6000602082019050611b4e6000830184611b2a565b92915050565b600080fd5b600080fd5b7f4e487b7100000000000000000000000000000000000000000000000000000000600052604160045260246000fd5b611b9682611940565b810181811067ffffffffffffffff82111715611bb557611bb4611b5e565b5b80604052505050565b6000611bc861182b565b9050611bd48282611b8d565b919050565b600067ffffffffffffffff821115611bf457611bf3611b5e565b5b611bfd82611940565b9050602081019050919050565b82818337600083830152505050565b6000611c2c611c2784611bd9565b611bbe565b905082815260208101848484011115611c4857611c47611b59565b5b611c53848285611c0a565b509392505050565b600082601f830112611c7057611c6f611b54565b5b8135611c80848260208601611c19565b91505092915050565b600060208284031215611c9f57611c9e611835565b5b600082013567ffffffffffffffff811115611cbd57611cbc61183a565b5b611cc984828501611c5b565b91505092915050565b600060208284031215611ce857611ce7611835565b5b6000611cf684828501611a82565b91505092915050565b611d08816118c4565b8114611d1357600080fd5b50565b600081359050611d2581611cff565b92915050565b60008060408385031215611d4257611d41611835565b5b6000611d5085828601611a82565b9250506020611d6185828601611d16565b9150509250929050565b600067ffffffffffffffff821115611d8657611d85611b5e565b5b611d8f82611940565b9050602081019050919050565b6000611daf611daa84611d6b565b611bbe565b905082815260208101848484011115611dcb57611dca611b59565b5b611dd6848285611c0a565b509392505050565b600082601f830112611df357611df2611b54565b5b8135611e03848260208601611d9c565b91505092915050565b60008060008060808587031215611e2657611e25611835565b5b6000611e3487828801611a82565b9450506020611e4587828801611a82565b9350506040611e56878288016119cd565b925050606085013567ffffffffffffffff811115611e7757611e7661183a565b5b611e8387828801611dde565b91505092959194509250565b60008060408385031215611ea657611ea5611835565b5b6000611eb485828601611a82565b9250506020611ec585828601611a82565b9150509250929050565b7f4e487b7100000000000000000000000000000000000000000000000000000000600052602260045260246000fd5b60006002820490506001821680611f1657607f821691505b602082108103611f2957611f28611ecf565b5b50919050565b6000606082019050611f446000830186611a41565b611f516020830185611b2a565b611f5e6040830184611a41565b949350505050565b600081905092915050565b6000611f7c826118fa565b611f868185611f66565b9350611f96818560208601611916565b80840191505092915050565b6000611fae8285611f71565b9150611fba8284611f71565b91508190509392505050565b60008190508160005260206000209050919050565b60006020601f8301049050919050565b600082821b905092915050565b6000600883026120287fffffffffffffffffffffffffffffffffffffffffffffffffffffffffffffffff82611feb565b6120328683611feb565b95508019841693508086168417925050509392505050565b6000819050919050565b600061206f61206a612065846119ac565b61204a565b6119ac565b9050919050565b6000819050919050565b61208983612054565b61209d61209582612076565b848454611ff8565b825550505050565b600090565b6120b26120a5565b6120bd818484612080565b505050565b5b818110156120e1576120d66000826120aa565b6001810190506120c3565b5050565b601f821115612126576120f781611fc6565b61210084611fdb565b8101602085101561210f578190505b61212361211b85611fdb565b8301826120c2565b50505b505050565b600082821c905092915050565b60006121496000198460080261212b565b1980831691505092915050565b60006121628383612138565b9150826002028217905092915050565b61217b826118fa565b67ffffffffffffffff81111561219457612193611b5e565b5b61219e8254611efe565b6121a98282856120e5565b600060209050601f8311600181146121dc57600084156121ca578287015190505b6121d48582612156565b86555061223c565b601f1984166121ea86611fc6565b60005b82811015612212578489015182556001820191506020850194506020810190506121ed565b8683101561222f578489015161222b601f891682612138565b8355505b6001600288020188555050505b505050505050565b600081519050919050565b600082825260208201905092915050565b600061226b82612244565b612275818561224f565b9350612285818560208601611916565b61228e81611940565b840191505092915050565b60006080820190506122ae6000830187611a41565b6122bb6020830186611a41565b6122c86040830185611b2a565b81810360608301526122da8184612260565b905095945050505050565b6000815190506122f48161186b565b92915050565b6000602082840312156123105761230f611835565b5b600061231e848285016122e5565b91505092915050565b600060408201905061233c6000830185611a41565b6123496020830184611b2a565b9392505050565b7f4e487b7100000000000000000000000000000000000000000000000000000000600052601260045260246000fdfea26469706673582212203f7d20bfb88f4e51034b4bb64be826f61d2dae54bce7abe12f2b6dd8dc377fb964736f6c63430008140033",
  "linkReferences": {},
  "deployedLinkReferences": {}
}