{
  "_format": "hh-sol-artifact-1",
  "contractName": "NFTMarket",
  "sourceName": "contracts/NFTMarket.sol",
  "abi": [
    {
      "inputs": [],
      "stateMutability": "nonpayable",
      "type": "constructor"
    },
    {
      "inputs": [],
      "name": "ReentrancyGuardReentrantCall",
      "type": "error"
    },
    {
      "anonymous": false,
      "inputs": [
        {
          "indexed": true,
          "internalType": "uint256",
          "name": "tokenId",
          "type": "uint256"
        }
      ],
      "name": "DeleteNFT",
      "type": "event"
    },
    {
      "anonymous": false,
      "inputs": [
        {
          "indexed": true,
          "internalType": "uint256",
          "name": "itemId",
          "type": "uint256"
        },
        {
          "indexed": true,
          "internalType": "address",
          "name": "nftContract",
          "type": "address"
        },
        {
          "indexed": true,
          "internalType": "uint256",
          "name": "tokenId",
          "type": "uint256"
        },
        {
          "indexed": false,
          "internalType": "address",
          "name": "owner",
          "type": "address"
        },
        {
          "indexed": false,
          "internalType": "address",
          "name": "seller",
          "type": "address"
        },
        {
          "indexed": false,
          "internalType": "uint256",
          "name": "price",
          "type": "uint256"
        },
        {
          "indexed": false,
          "internalType": "bool",
          "name": "sold",
          "type": "bool"
        },
        {
          "indexed": false,
          "internalType": "bool",
          "name": "IsDeleted",
          "type": "bool"
        }
      ],
      "name": "buyItem",
      "type": "event"
    },
    {
      "anonymous": false,
      "inputs": [
        {
          "indexed": true,
          "internalType": "uint256",
          "name": "itemId",
          "type": "uint256"
        },
        {
          "indexed": true,
          "internalType": "address",
          "name": "nftContract",
          "type": "address"
        },
        {
          "indexed": true,
          "internalType": "uint256",
          "name": "tokenId",
          "type": "uint256"
        },
        {
          "indexed": false,
          "internalType": "address",
          "name": "owner",
          "type": "address"
        },
        {
          "indexed": false,
          "internalType": "address",
          "name": "seller",
          "type": "address"
        },
        {
          "indexed": false,
          "internalType": "uint256",
          "name": "price",
          "type": "uint256"
        },
        {
          "indexed": false,
          "internalType": "bool",
          "name": "sold",
          "type": "bool"
        },
        {
          "indexed": false,
          "internalType": "bool",
          "name": "IsDeleted",
          "type": "bool"
        }
      ],
      "name": "createItem",
      "type": "event"
    },
    {
      "inputs": [
        {
          "internalType": "uint256",
          "name": "price",
          "type": "uint256"
        },
        {
          "internalType": "address",
          "name": "nftContract",
          "type": "address"
        },
        {
          "internalType": "uint256",
          "name": "tokenid",
          "type": "uint256"
        }
      ],
      "name": "CreateItem",
      "outputs": [
        {
          "components": [
            {
              "internalType": "uint256",
              "name": "itemId",
              "type": "uint256"
            },
            {
              "internalType": "address",
              "name": "nftContract",
              "type": "address"
            },
            {
              "internalType": "uint256",
              "name": "tokenId",
              "type": "uint256"
            },
            {
              "internalType": "address payable",
              "name": "owner",
              "type": "address"
            },
            {
              "internalType": "address payable",
              "name": "seller",
              "type": "address"
            },
            {
              "internalType": "uint256",
              "name": "price",
              "type": "uint256"
            },
            {
              "internalType": "bool",
              "name": "sold",
              "type": "bool"
            },
            {
              "internalType": "bool",
              "name": "IsDeleted",
              "type": "bool"
            }
          ],
          "internalType": "struct NFTMarket.MarketItem",
          "name": "",
          "type": "tuple"
        }
      ],
      "stateMutability": "payable",
      "type": "function"
    },
    {
      "inputs": [
        {
          "internalType": "uint256",
          "name": "itemid",
          "type": "uint256"
        }
      ],
      "name": "DeleteItem",
      "outputs": [
        {
          "components": [
            {
              "internalType": "uint256",
              "name": "itemId",
              "type": "uint256"
            },
            {
              "internalType": "address",
              "name": "nftContract",
              "type": "address"
            },
            {
              "internalType": "uint256",
              "name": "tokenId",
              "type": "uint256"
            },
            {
              "internalType": "address payable",
              "name": "owner",
              "type": "address"
            },
            {
              "internalType": "address payable",
              "name": "seller",
              "type": "address"
            },
            {
              "internalType": "uint256",
              "name": "price",
              "type": "uint256"
            },
            {
              "internalType": "bool",
              "name": "sold",
              "type": "bool"
            },
            {
              "internalType": "bool",
              "name": "IsDeleted",
              "type": "bool"
            }
          ],
          "internalType": "struct NFTMarket.MarketItem",
          "name": "",
          "type": "tuple"
        }
      ],
      "stateMutability": "nonpayable",
      "type": "function"
    },
    {
      "inputs": [],
      "name": "_itemId",
      "outputs": [
        {
          "internalType": "uint256",
          "name": "_value",
          "type": "uint256"
        }
      ],
      "stateMutability": "view",
      "type": "function"
    },
    {
      "inputs": [],
      "name": "_itemsDel",
      "outputs": [
        {
          "internalType": "uint256",
          "name": "_value",
          "type": "uint256"
        }
      ],
      "stateMutability": "view",
      "type": "function"
    },
    {
      "inputs": [],
      "name": "_itemsSold",
      "outputs": [
        {
          "internalType": "uint256",
          "name": "_value",
          "type": "uint256"
        }
      ],
      "stateMutability": "view",
      "type": "function"
    },
    {
      "inputs": [],
      "name": "fetchItems",
      "outputs": [
        {
          "components": [
            {
              "internalType": "uint256",
              "name": "itemId",
              "type": "uint256"
            },
            {
              "internalType": "address",
              "name": "nftContract",
              "type": "address"
            },
            {
              "internalType": "uint256",
              "name": "tokenId",
              "type": "uint256"
            },
            {
              "internalType": "address payable",
              "name": "owner",
              "type": "address"
            },
            {
              "internalType": "address payable",
              "name": "seller",
              "type": "address"
            },
            {
              "internalType": "uint256",
              "name": "price",
              "type": "uint256"
            },
            {
              "internalType": "bool",
              "name": "sold",
              "type": "bool"
            },
            {
              "internalType": "bool",
              "name": "IsDeleted",
              "type": "bool"
            }
          ],
          "internalType": "struct NFTMarket.MarketItem[]",
          "name": "",
          "type": "tuple[]"
        }
      ],
      "stateMutability": "view",
      "type": "function"
    },
    {
      "inputs": [],
      "name": "fetchItemsCreated",
      "outputs": [
        {
          "components": [
            {
              "internalType": "uint256",
              "name": "itemId",
              "type": "uint256"
            },
            {
              "internalType": "address",
              "name": "nftContract",
              "type": "address"
            },
            {
              "internalType": "uint256",
              "name": "tokenId",
              "type": "uint256"
            },
            {
              "internalType": "address payable",
              "name": "owner",
              "type": "address"
            },
            {
              "internalType": "address payable",
              "name": "seller",
              "type": "address"
            },
            {
              "internalType": "uint256",
              "name": "price",
              "type": "uint256"
            },
            {
              "internalType": "bool",
              "name": "sold",
              "type": "bool"
            },
            {
              "internalType": "bool",
              "name": "IsDeleted",
              "type": "bool"
            }
          ],
          "internalType": "struct NFTMarket.MarketItem[]",
          "name": "",
          "type": "tuple[]"
        }
      ],
      "stateMutability": "view",
      "type": "function"
    },
    {
      "inputs": [],
      "name": "fetchMyItems",
      "outputs": [
        {
          "components": [
            {
              "internalType": "uint256",
              "name": "itemId",
              "type": "uint256"
            },
            {
              "internalType": "address",
              "name": "nftContract",
              "type": "address"
            },
            {
              "internalType": "uint256",
              "name": "tokenId",
              "type": "uint256"
            },
            {
              "internalType": "address payable",
              "name": "owner",
              "type": "address"
            },
            {
              "internalType": "address payable",
              "name": "seller",
              "type": "address"
            },
            {
              "internalType": "uint256",
              "name": "price",
              "type": "uint256"
            },
            {
              "internalType": "bool",
              "name": "sold",
              "type": "bool"
            },
            {
              "internalType": "bool",
              "name": "IsDeleted",
              "type": "bool"
            }
          ],
          "internalType": "struct NFTMarket.MarketItem[]",
          "name": "",
          "type": "tuple[]"
        }
      ],
      "stateMutability": "view",
      "type": "function"
    },
    {
      "inputs": [],
      "name": "getUnsoldCount",
      "outputs": [
        {
          "components": [
            {
              "internalType": "uint256",
              "name": "_value",
              "type": "uint256"
            }
          ],
          "internalType": "struct Counters.Counter",
          "name": "",
          "type": "tuple"
        },
        {
          "components": [
            {
              "internalType": "uint256",
              "name": "_value",
              "type": "uint256"
            }
          ],
          "internalType": "struct Counters.Counter",
          "name": "",
          "type": "tuple"
        },
        {
          "components": [
            {
              "internalType": "uint256",
              "name": "_value",
              "type": "uint256"
            }
          ],
          "internalType": "struct Counters.Counter",
          "name": "",
          "type": "tuple"
        }
      ],
      "stateMutability": "view",
      "type": "function"
    },
    {
      "inputs": [],
      "name": "listingPrice",
      "outputs": [
        {
          "internalType": "uint256",
          "name": "",
          "type": "uint256"
        }
      ],
      "stateMutability": "view",
      "type": "function"
    },
    {
      "inputs": [
        {
          "internalType": "uint256",
          "name": "itemid",
          "type": "uint256"
        },
        {
          "internalType": "address",
          "name": "nftContract",
          "type": "address"
        }
      ],
      "name": "saleNFT",
      "outputs": [],
      "stateMutability": "payable",
      "type": "function"
    }
  ],
  "bytecode": "0x6080604052670de0b6b3a764000060025534801561001c57600080fd5b50600160008190555033600160006101000a81548173ffffffffffffffffffffffffffffffffffffffff021916908373ffffffffffffffffffffffffffffffffffffffff16021790555061224e806100756000396000f3fe60806040526004361061009c5760003560e01c8063ad78ba7b11610064578063ad78ba7b1461018f578063c78f19f9146101ba578063d9ce85b0146101e5578063ebadd2b114610210578063f064c32e1461022c578063f17e92f8146102575761009c565b806315c9ae10146100a15780632c199064146100cc57806387506a0d14610109578063955139b914610134578063a6f49bfe1461015f575b600080fd5b3480156100ad57600080fd5b506100b6610284565b6040516100c39190611ab4565b60405180910390f35b3480156100d857600080fd5b506100f360048036038101906100ee9190611b07565b61063e565b6040516101009190611bd6565b60405180910390f35b34801561011557600080fd5b5061011e610890565b60405161012b9190611c01565b60405180910390f35b34801561014057600080fd5b5061014961089c565b6040516101569190611c01565b60405180910390f35b61017960048036038101906101749190611c48565b6108a8565b6040516101869190611bd6565b60405180910390f35b34801561019b57600080fd5b506101a4610d74565b6040516101b19190611ab4565b60405180910390f35b3480156101c657600080fd5b506101cf6110c0565b6040516101dc9190611c01565b60405180910390f35b3480156101f157600080fd5b506101fa6110c6565b6040516102079190611c01565b60405180910390f35b61022a60048036038101906102259190611c9b565b6110d2565b005b34801561023857600080fd5b506102416113cf565b60405161024e9190611ab4565b60405180910390f35b34801561026357600080fd5b5061026c611749565b60405161027b93929190611cf7565b60405180910390f35b6060600061029260036117ba565b905060008060005b83811015610379573373ffffffffffffffffffffffffffffffffffffffff16600660006001846102ca9190611d5d565b815260200190815260200160002060030160009054906101000a900473ffffffffffffffffffffffffffffffffffffffff1673ffffffffffffffffffffffffffffffffffffffff161480156103525750600015156006600060018461032f9190611d5d565b815260200190815260200160002060060160019054906101000a900460ff161515145b1561036657828061036290611d91565b9350505b808061037190611d91565b91505061029a565b5060008267ffffffffffffffff81111561039657610395611dd9565b5b6040519080825280602002602001820160405280156103cf57816020015b6103bc61182e565b8152602001906001900390816103b45790505b50905060005b83811015610633573373ffffffffffffffffffffffffffffffffffffffff16600660006001846104059190611d5d565b815260200190815260200160002060030160009054906101000a900473ffffffffffffffffffffffffffffffffffffffff1673ffffffffffffffffffffffffffffffffffffffff1603610620576000600660006001846104659190611d5d565b815260200190815260200160002060000154905060006006600083815260200190815260200160002090508060405180610100016040529081600082015481526020016001820160009054906101000a900473ffffffffffffffffffffffffffffffffffffffff1673ffffffffffffffffffffffffffffffffffffffff1673ffffffffffffffffffffffffffffffffffffffff168152602001600282015481526020016003820160009054906101000a900473ffffffffffffffffffffffffffffffffffffffff1673ffffffffffffffffffffffffffffffffffffffff1673ffffffffffffffffffffffffffffffffffffffff1681526020016004820160009054906101000a900473ffffffffffffffffffffffffffffffffffffffff1673ffffffffffffffffffffffffffffffffffffffff1673ffffffffffffffffffffffffffffffffffffffff168152602001600582015481526020016006820160009054906101000a900460ff161515151581526020016006820160019054906101000a900460ff1615151515815250508486806105ff90611d91565b97508151811061061257610611611e08565b5b602002602001018190525050505b808061062b90611d91565b9150506103d5565b508094505050505090565b61064661182e565b61064e6117c8565b60006006600084815260200190815260200160002090508060060160009054906101000a900460ff16156106b7576040517f08c379a00000000000000000000000000000000000000000000000000000000081526004016106ae90611e94565b60405180910390fd5b60016006600085815260200190815260200160002060060160016101000a81548160ff021916908315150217905550827fbeb29b527079a9d5b3a739cbb274d6c4c49a57f4667fa6d300ccfd901fdd5ae960405160405180910390a261071d600561180e565b8060405180610100016040529081600082015481526020016001820160009054906101000a900473ffffffffffffffffffffffffffffffffffffffff1673ffffffffffffffffffffffffffffffffffffffff1673ffffffffffffffffffffffffffffffffffffffff168152602001600282015481526020016003820160009054906101000a900473ffffffffffffffffffffffffffffffffffffffff1673ffffffffffffffffffffffffffffffffffffffff1673ffffffffffffffffffffffffffffffffffffffff1681526020016004820160009054906101000a900473ffffffffffffffffffffffffffffffffffffffff1673ffffffffffffffffffffffffffffffffffffffff1673ffffffffffffffffffffffffffffffffffffffff168152602001600582015481526020016006820160009054906101000a900460ff161515151581526020016006820160019054906101000a900460ff16151515158152505091505061088b611824565b919050565b60048060000154905081565b60058060000154905081565b6108b061182e565b6108b86117c8565b600084116108fb576040517f08c379a00000000000000000000000000000000000000000000000000000000081526004016108f290611f00565b60405180910390fd5b600254341015610940576040517f08c379a000000000000000000000000000000000000000000000000000000000815260040161093790611f6c565b60405180910390fd5b61094a600361180e565b600061095660036117ba565b90506040518061010001604052808281526020018573ffffffffffffffffffffffffffffffffffffffff168152602001848152602001600073ffffffffffffffffffffffffffffffffffffffff1681526020013373ffffffffffffffffffffffffffffffffffffffff16815260200186815260200160001515815260200160001515815250600660008381526020019081526020016000206000820151816000015560208201518160010160006101000a81548173ffffffffffffffffffffffffffffffffffffffff021916908373ffffffffffffffffffffffffffffffffffffffff1602179055506040820151816002015560608201518160030160006101000a81548173ffffffffffffffffffffffffffffffffffffffff021916908373ffffffffffffffffffffffffffffffffffffffff16021790555060808201518160040160006101000a81548173ffffffffffffffffffffffffffffffffffffffff021916908373ffffffffffffffffffffffffffffffffffffffff16021790555060a0820151816005015560c08201518160060160006101000a81548160ff02191690831515021790555060e08201518160060160016101000a81548160ff0219169083151502179055509050508373ffffffffffffffffffffffffffffffffffffffff166323b872dd3330866040518463ffffffff1660e01b8152600401610b6193929190611f9b565b600060405180830381600087803b158015610b7b57600080fd5b505af1158015610b8f573d6000803e3d6000fd5b50505050828473ffffffffffffffffffffffffffffffffffffffff16827f07564f19917fab7e638ec0e09f3f6878d2f0f8a03ae11fcddcd0884cf721eb376000338a600080604051610be5959493929190611fe1565b60405180910390a46006600082815260200190815260200160002060405180610100016040529081600082015481526020016001820160009054906101000a900473ffffffffffffffffffffffffffffffffffffffff1673ffffffffffffffffffffffffffffffffffffffff1673ffffffffffffffffffffffffffffffffffffffff168152602001600282015481526020016003820160009054906101000a900473ffffffffffffffffffffffffffffffffffffffff1673ffffffffffffffffffffffffffffffffffffffff1673ffffffffffffffffffffffffffffffffffffffff1681526020016004820160009054906101000a900473ffffffffffffffffffffffffffffffffffffffff1673ffffffffffffffffffffffffffffffffffffffff1673ffffffffffffffffffffffffffffffffffffffff168152602001600582015481526020016006820160009054906101000a900460ff161515151581526020016006820160019054906101000a900460ff161515151581525050915050610d6d611824565b9392505050565b60606000610d8260036117ba565b90506000610d9060056117ba565b610d9a60046117ba565b610da460036117ba565b610dae9190612034565b610db89190612034565b905060008167ffffffffffffffff811115610dd657610dd5611dd9565b5b604051908082528060200260200182016040528015610e0f57816020015b610dfc61182e565b815260200190600190039081610df45790505b5090506000805b848110156110b557600073ffffffffffffffffffffffffffffffffffffffff1660066000600184610e479190611d5d565b815260200190815260200160002060030160009054906101000a900473ffffffffffffffffffffffffffffffffffffffff1673ffffffffffffffffffffffffffffffffffffffff16148015610ecf57506000151560066000600184610eac9190611d5d565b815260200190815260200160002060060160019054906101000a900460ff161515145b156110a257600060066000600184610ee79190611d5d565b815260200190815260200160002060000154905060006006600083815260200190815260200160002090508060405180610100016040529081600082015481526020016001820160009054906101000a900473ffffffffffffffffffffffffffffffffffffffff1673ffffffffffffffffffffffffffffffffffffffff1673ffffffffffffffffffffffffffffffffffffffff168152602001600282015481526020016003820160009054906101000a900473ffffffffffffffffffffffffffffffffffffffff1673ffffffffffffffffffffffffffffffffffffffff1673ffffffffffffffffffffffffffffffffffffffff1681526020016004820160009054906101000a900473ffffffffffffffffffffffffffffffffffffffff1673ffffffffffffffffffffffffffffffffffffffff1673ffffffffffffffffffffffffffffffffffffffff168152602001600582015481526020016006820160009054906101000a900460ff161515151581526020016006820160019054906101000a900460ff16151515158152505085858061108190611d91565b96508151811061109457611093611e08565b5b602002602001018190525050505b80806110ad90611d91565b915050610e16565b508194505050505090565b60025481565b60038060000154905081565b6110da6117c8565b6000600660008481526020019081526020016000206005015490506000600660008581526020019081526020016000206002015490506006600085815260200190815260200160002060060160019054906101000a900460ff1615611174576040517f08c379a000000000000000000000000000000000000000000000000000000000815260040161116b906120b4565b60405180910390fd5b348211156111b7576040517f08c379a00000000000000000000000000000000000000000000000000000000081526004016111ae90612146565b60405180910390fd5b6006600085815260200190815260200160002060040160009054906101000a900473ffffffffffffffffffffffffffffffffffffffff1673ffffffffffffffffffffffffffffffffffffffff166108fc349081150290604051600060405180830381858888f19350505050158015611233573d6000803e3d6000fd5b508273ffffffffffffffffffffffffffffffffffffffff166323b872dd3033846040518463ffffffff1660e01b815260040161127193929190611f9b565b600060405180830381600087803b15801561128b57600080fd5b505af115801561129f573d6000803e3d6000fd5b50505050808373ffffffffffffffffffffffffffffffffffffffff16857f48892d87e167bacf7f298651156f8376b3095e044d754d3cb6062245c715f12933600660008a815260200190815260200160002060040160009054906101000a900473ffffffffffffffffffffffffffffffffffffffff16876001600060405161132b9594939291906121c5565b60405180910390a4336006600086815260200190815260200160002060030160006101000a81548173ffffffffffffffffffffffffffffffffffffffff021916908373ffffffffffffffffffffffffffffffffffffffff16021790555060016006600086815260200190815260200160002060060160006101000a81548160ff0219169083151502179055506113c1600461180e565b50506113cb611824565b5050565b606060006113dd60036117ba565b905060008060005b83811015611484573373ffffffffffffffffffffffffffffffffffffffff16600660006001846114159190611d5d565b815260200190815260200160002060040160009054906101000a900473ffffffffffffffffffffffffffffffffffffffff1673ffffffffffffffffffffffffffffffffffffffff160361147157828061146d90611d91565b9350505b808061147c90611d91565b9150506113e5565b5060008267ffffffffffffffff8111156114a1576114a0611dd9565b5b6040519080825280602002602001820160405280156114da57816020015b6114c761182e565b8152602001906001900390816114bf5790505b50905060005b8381101561173e573373ffffffffffffffffffffffffffffffffffffffff16600660006001846115109190611d5d565b815260200190815260200160002060040160009054906101000a900473ffffffffffffffffffffffffffffffffffffffff1673ffffffffffffffffffffffffffffffffffffffff160361172b576000600660006001846115709190611d5d565b815260200190815260200160002060000154905060006006600083815260200190815260200160002090508060405180610100016040529081600082015481526020016001820160009054906101000a900473ffffffffffffffffffffffffffffffffffffffff1673ffffffffffffffffffffffffffffffffffffffff1673ffffffffffffffffffffffffffffffffffffffff168152602001600282015481526020016003820160009054906101000a900473ffffffffffffffffffffffffffffffffffffffff1673ffffffffffffffffffffffffffffffffffffffff1673ffffffffffffffffffffffffffffffffffffffff1681526020016004820160009054906101000a900473ffffffffffffffffffffffffffffffffffffffff1673ffffffffffffffffffffffffffffffffffffffff1673ffffffffffffffffffffffffffffffffffffffff168152602001600582015481526020016006820160009054906101000a900460ff161515151581526020016006820160019054906101000a900460ff16151515158152505084868061170a90611d91565b97508151811061171d5761171c611e08565b5b602002602001018190525050505b808061173690611d91565b9150506114e0565b508094505050505090565b6117516118b9565b6117596118b9565b6117616118b9565b600460036005826040518060200160405290816000820154815250509250816040518060200160405290816000820154815250509150806040518060200160405290816000820154815250509050925092509250909192565b600081600001549050919050565b600260005403611804576040517f3ee5aeb500000000000000000000000000000000000000000000000000000000815260040160405180910390fd5b6002600081905550565b6001816000016000828254019250508190555050565b6001600081905550565b60405180610100016040528060008152602001600073ffffffffffffffffffffffffffffffffffffffff16815260200160008152602001600073ffffffffffffffffffffffffffffffffffffffff168152602001600073ffffffffffffffffffffffffffffffffffffffff168152602001600081526020016000151581526020016000151581525090565b6040518060200160405280600081525090565b600081519050919050565b600082825260208201905092915050565b6000819050602082019050919050565b6000819050919050565b61190b816118f8565b82525050565b600073ffffffffffffffffffffffffffffffffffffffff82169050919050565b600061193c82611911565b9050919050565b61194c81611931565b82525050565b600061195d82611911565b9050919050565b61196d81611952565b82525050565b60008115159050919050565b61198881611973565b82525050565b610100820160008201516119a56000850182611902565b5060208201516119b86020850182611943565b5060408201516119cb6040850182611902565b5060608201516119de6060850182611964565b5060808201516119f16080850182611964565b5060a0820151611a0460a0850182611902565b5060c0820151611a1760c085018261197f565b5060e0820151611a2a60e085018261197f565b50505050565b6000611a3c838361198e565b6101008301905092915050565b6000602082019050919050565b6000611a61826118cc565b611a6b81856118d7565b9350611a76836118e8565b8060005b83811015611aa7578151611a8e8882611a30565b9750611a9983611a49565b925050600181019050611a7a565b5085935050505092915050565b60006020820190508181036000830152611ace8184611a56565b905092915050565b600080fd5b611ae4816118f8565b8114611aef57600080fd5b50565b600081359050611b0181611adb565b92915050565b600060208284031215611b1d57611b1c611ad6565b5b6000611b2b84828501611af2565b91505092915050565b61010082016000820151611b4b6000850182611902565b506020820151611b5e6020850182611943565b506040820151611b716040850182611902565b506060820151611b846060850182611964565b506080820151611b976080850182611964565b5060a0820151611baa60a0850182611902565b5060c0820151611bbd60c085018261197f565b5060e0820151611bd060e085018261197f565b50505050565b600061010082019050611bec6000830184611b34565b92915050565b611bfb816118f8565b82525050565b6000602082019050611c166000830184611bf2565b92915050565b611c2581611931565b8114611c3057600080fd5b50565b600081359050611c4281611c1c565b92915050565b600080600060608486031215611c6157611c60611ad6565b5b6000611c6f86828701611af2565b9350506020611c8086828701611c33565b9250506040611c9186828701611af2565b9150509250925092565b60008060408385031215611cb257611cb1611ad6565b5b6000611cc085828601611af2565b9250506020611cd185828601611c33565b9150509250929050565b602082016000820151611cf16000850182611902565b50505050565b6000606082019050611d0c6000830186611cdb565b611d196020830185611cdb565b611d266040830184611cdb565b949350505050565b7f4e487b7100000000000000000000000000000000000000000000000000000000600052601160045260246000fd5b6000611d68826118f8565b9150611d73836118f8565b9250828201905080821115611d8b57611d8a611d2e565b5b92915050565b6000611d9c826118f8565b91507fffffffffffffffffffffffffffffffffffffffffffffffffffffffffffffffff8203611dce57611dcd611d2e565b5b600182019050919050565b7f4e487b7100000000000000000000000000000000000000000000000000000000600052604160045260246000fd5b7f4e487b7100000000000000000000000000000000000000000000000000000000600052603260045260246000fd5b600082825260208201905092915050565b7f436f756c64206e6f742064656c65746520736f6c64204e465427730000000000600082015250565b6000611e7e601b83611e37565b9150611e8982611e48565b602082019050919050565b60006020820190508181036000830152611ead81611e71565b9050919050565b7f50726963652053686f756c642062652061746c65617374203120776569000000600082015250565b6000611eea601d83611e37565b9150611ef582611eb4565b602082019050919050565b60006020820190508181036000830152611f1981611edd565b9050919050565b7f50617920746865207265717569726564206c697374696e672066656573000000600082015250565b6000611f56601d83611e37565b9150611f6182611f20565b602082019050919050565b60006020820190508181036000830152611f8581611f49565b9050919050565b611f9581611931565b82525050565b6000606082019050611fb06000830186611f8c565b611fbd6020830185611f8c565b611fca6040830184611bf2565b949350505050565b611fdb81611973565b82525050565b600060a082019050611ff66000830188611f8c565b6120036020830187611f8c565b6120106040830186611bf2565b61201d6060830185611fd2565b61202a6080830184611fd2565b9695505050505050565b600061203f826118f8565b915061204a836118f8565b925082820390508181111561206257612061611d2e565b5b92915050565b7f4e4654206e6f7420617661696c61626c65000000000000000000000000000000600082015250565b600061209e601183611e37565b91506120a982612068565b602082019050919050565b600060208201905081810360008301526120cd81612091565b9050919050565b7f5061792074686520726571756972656420707269636520746f2062757920746860008201527f6973206f72646572000000000000000000000000000000000000000000000000602082015250565b6000612130602883611e37565b915061213b826120d4565b604082019050919050565b6000602082019050818103600083015261215f81612123565b9050919050565b6000819050919050565b600061218b61218661218184611911565b612166565b611911565b9050919050565b600061219d82612170565b9050919050565b60006121af82612192565b9050919050565b6121bf816121a4565b82525050565b600060a0820190506121da6000830188611f8c565b6121e760208301876121b6565b6121f46040830186611bf2565b6122016060830185611fd2565b61220e6080830184611fd2565b969550505050505056fea26469706673582212201799335d40afdb1076ad01400c298cbfe554f66980ba900096f11ac4f0520f1b64736f6c63430008140033",
  "linkReferences": {},
  "deployedLinkReferences": {}
}